{
  "_format": "hh-sol-artifact-1",
  "contractName": "Dao",
  "sourceName": "contracts/Dao.sol",
  "abi": [
    {
      "inputs": [
        {
          "internalType": "address",
          "name": "member",
          "type": "address"
        }
      ],
      "name": "addMember",
      "outputs": [],
      "stateMutability": "nonpayable",
      "type": "function"
    },
    {
      "inputs": [
        {
          "internalType": "string",
          "name": "role",
          "type": "string"
        }
      ],
      "name": "addRole",
      "outputs": [],
      "stateMutability": "nonpayable",
      "type": "function"
    },
    {
      "inputs": [],
      "name": "getMembersCount",
      "outputs": [
        {
          "internalType": "uint256",
          "name": "",
          "type": "uint256"
        }
      ],
      "stateMutability": "view",
      "type": "function"
    },
    {
      "inputs": [],
      "name": "getRolesCount",
      "outputs": [
        {
          "internalType": "uint256",
          "name": "",
          "type": "uint256"
        }
      ],
      "stateMutability": "view",
      "type": "function"
    },
    {
      "inputs": [
        {
          "internalType": "address",
          "name": "",
          "type": "address"
        }
      ],
      "name": "isMember",
      "outputs": [
        {
          "internalType": "bool",
          "name": "",
          "type": "bool"
        }
      ],
      "stateMutability": "view",
      "type": "function"
    },
    {
      "inputs": [
        {
          "internalType": "uint256",
          "name": "",
          "type": "uint256"
        }
      ],
      "name": "members",
      "outputs": [
        {
          "internalType": "address",
          "name": "",
          "type": "address"
        }
      ],
      "stateMutability": "view",
      "type": "function"
    },
    {
      "inputs": [
        {
          "internalType": "address",
          "name": "ratee",
          "type": "address"
        },
        {
          "internalType": "string",
          "name": "role",
          "type": "string"
        },
        {
          "internalType": "address",
          "name": "rater",
          "type": "address"
        },
        {
          "internalType": "uint8",
          "name": "rating",
          "type": "uint8"
        }
      ],
      "name": "rateMember",
      "outputs": [],
      "stateMutability": "nonpayable",
      "type": "function"
    },
    {
      "inputs": [
        {
          "internalType": "address",
          "name": "",
          "type": "address"
        },
        {
          "internalType": "string",
          "name": "",
          "type": "string"
        },
        {
          "internalType": "address",
          "name": "",
          "type": "address"
        }
      ],
      "name": "ratings",
      "outputs": [
        {
          "internalType": "uint8",
          "name": "",
          "type": "uint8"
        }
      ],
      "stateMutability": "view",
      "type": "function"
    },
    {
      "inputs": [
        {
          "internalType": "string",
          "name": "",
          "type": "string"
        }
      ],
      "name": "roleExists",
      "outputs": [
        {
          "internalType": "bool",
          "name": "",
          "type": "bool"
        }
      ],
      "stateMutability": "view",
      "type": "function"
    },
    {
      "inputs": [
        {
          "internalType": "uint256",
          "name": "",
          "type": "uint256"
        }
      ],
      "name": "roles",
      "outputs": [
        {
          "internalType": "string",
          "name": "",
          "type": "string"
        }
      ],
      "stateMutability": "view",
      "type": "function"
    }
  ],
  "bytecode": "0x608060405234801561001057600080fd5b50610ebc806100206000396000f3fe608060405234801561001057600080fd5b506004361061009e5760003560e01c80639ef215c9116100665780639ef215c91461015b578063a230c52414610177578063bfda4a49146101a7578063ca6d56dc146101d7578063d00cce41146101f35761009e565b806303bb915f146100a357806309772f8f146100d35780633e96e868146100f15780635daf08ca1461010d5780637fccc2481461013d575b600080fd5b6100bd60048036038101906100b891906107fc565b610223565b6040516100ca9190610887565b60405180910390f35b6100db610275565b6040516100e891906108bb565b60405180910390f35b61010b600480360381019061010691906108d6565b610282565b005b6101276004803603810190610122919061094b565b610329565b6040516101349190610987565b60405180910390f35b610145610368565b60405161015291906108bb565b60405180910390f35b610175600480360381019061017091906109ce565b610375565b005b610191600480360381019061018c9190610a51565b61042b565b60405161019e9190610a99565b60405180910390f35b6101c160048036038101906101bc919061094b565b61044b565b6040516101ce9190610b33565b60405180910390f35b6101f160048036038101906101ec9190610a51565b6104f7565b005b61020d600480360381019061020891906108d6565b61060e565b60405161021a9190610a99565b60405180910390f35b600060205282600052604060002082805160208101820180518482526020830160208501208183528095505050505050602052806000526040600020600092509250509054906101000a900460ff1681565b6000600180549050905090565b600015156004826040516102969190610b91565b908152602001604051809103902060009054906101000a900460ff161515036103265760016004826040516102cb9190610b91565b908152602001604051809103902060006101000a81548160ff0219169083151502179055506003819080600181540180825580915050600190039060005260206000200160009091909190915090816103249190610db4565b505b50565b6001818154811061033957600080fd5b906000526020600020016000915054906101000a900473ffffffffffffffffffffffffffffffffffffffff1681565b6000600380549050905090565b806000808673ffffffffffffffffffffffffffffffffffffffff1673ffffffffffffffffffffffffffffffffffffffff168152602001908152602001600020846040516103c29190610b91565b908152602001604051809103902060008473ffffffffffffffffffffffffffffffffffffffff1673ffffffffffffffffffffffffffffffffffffffff16815260200190815260200160002060006101000a81548160ff021916908360ff16021790555050505050565b60026020528060005260406000206000915054906101000a900460ff1681565b6003818154811061045b57600080fd5b90600052602060002001600091509050805461047690610bd7565b80601f01602080910402602001604051908101604052809291908181526020018280546104a290610bd7565b80156104ef5780601f106104c4576101008083540402835291602001916104ef565b820191906000526020600020905b8154815290600101906020018083116104d257829003601f168201915b505050505081565b60001515600260008373ffffffffffffffffffffffffffffffffffffffff1673ffffffffffffffffffffffffffffffffffffffff16815260200190815260200160002060009054906101000a900460ff1615150361060b576001600260008373ffffffffffffffffffffffffffffffffffffffff1673ffffffffffffffffffffffffffffffffffffffff16815260200190815260200160002060006101000a81548160ff0219169083151502179055506001819080600181540180825580915050600190039060005260206000200160009091909190916101000a81548173ffffffffffffffffffffffffffffffffffffffff021916908373ffffffffffffffffffffffffffffffffffffffff1602179055505b50565b6004818051602081018201805184825260208301602085012081835280955050505050506000915054906101000a900460ff1681565b6000604051905090565b600080fd5b600080fd5b600073ffffffffffffffffffffffffffffffffffffffff82169050919050565b600061068382610658565b9050919050565b61069381610678565b811461069e57600080fd5b50565b6000813590506106b08161068a565b92915050565b600080fd5b600080fd5b6000601f19601f8301169050919050565b7f4e487b7100000000000000000000000000000000000000000000000000000000600052604160045260246000fd5b610709826106c0565b810181811067ffffffffffffffff82111715610728576107276106d1565b5b80604052505050565b600061073b610644565b90506107478282610700565b919050565b600067ffffffffffffffff821115610767576107666106d1565b5b610770826106c0565b9050602081019050919050565b82818337600083830152505050565b600061079f61079a8461074c565b610731565b9050828152602081018484840111156107bb576107ba6106bb565b5b6107c684828561077d565b509392505050565b600082601f8301126107e3576107e26106b6565b5b81356107f384826020860161078c565b91505092915050565b6000806000606084860312156108155761081461064e565b5b6000610823868287016106a1565b935050602084013567ffffffffffffffff81111561084457610843610653565b5b610850868287016107ce565b9250506040610861868287016106a1565b9150509250925092565b600060ff82169050919050565b6108818161086b565b82525050565b600060208201905061089c6000830184610878565b92915050565b6000819050919050565b6108b5816108a2565b82525050565b60006020820190506108d060008301846108ac565b92915050565b6000602082840312156108ec576108eb61064e565b5b600082013567ffffffffffffffff81111561090a57610909610653565b5b610916848285016107ce565b91505092915050565b610928816108a2565b811461093357600080fd5b50565b6000813590506109458161091f565b92915050565b6000602082840312156109615761096061064e565b5b600061096f84828501610936565b91505092915050565b61098181610678565b82525050565b600060208201905061099c6000830184610978565b92915050565b6109ab8161086b565b81146109b657600080fd5b50565b6000813590506109c8816109a2565b92915050565b600080600080608085870312156109e8576109e761064e565b5b60006109f6878288016106a1565b945050602085013567ffffffffffffffff811115610a1757610a16610653565b5b610a23878288016107ce565b9350506040610a34878288016106a1565b9250506060610a45878288016109b9565b91505092959194509250565b600060208284031215610a6757610a6661064e565b5b6000610a75848285016106a1565b91505092915050565b60008115159050919050565b610a9381610a7e565b82525050565b6000602082019050610aae6000830184610a8a565b92915050565b600081519050919050565b600082825260208201905092915050565b60005b83811015610aee578082015181840152602081019050610ad3565b60008484015250505050565b6000610b0582610ab4565b610b0f8185610abf565b9350610b1f818560208601610ad0565b610b28816106c0565b840191505092915050565b60006020820190508181036000830152610b4d8184610afa565b905092915050565b600081905092915050565b6000610b6b82610ab4565b610b758185610b55565b9350610b85818560208601610ad0565b80840191505092915050565b6000610b9d8284610b60565b915081905092915050565b7f4e487b7100000000000000000000000000000000000000000000000000000000600052602260045260246000fd5b60006002820490506001821680610bef57607f821691505b602082108103610c0257610c01610ba8565b5b50919050565b60008190508160005260206000209050919050565b60006020601f8301049050919050565b600082821b905092915050565b600060088302610c6a7fffffffffffffffffffffffffffffffffffffffffffffffffffffffffffffffff82610c2d565b610c748683610c2d565b95508019841693508086168417925050509392505050565b6000819050919050565b6000610cb1610cac610ca7846108a2565b610c8c565b6108a2565b9050919050565b6000819050919050565b610ccb83610c96565b610cdf610cd782610cb8565b848454610c3a565b825550505050565b600090565b610cf4610ce7565b610cff818484610cc2565b505050565b5b81811015610d2357610d18600082610cec565b600181019050610d05565b5050565b601f821115610d6857610d3981610c08565b610d4284610c1d565b81016020851015610d51578190505b610d65610d5d85610c1d565b830182610d04565b50505b505050565b600082821c905092915050565b6000610d8b60001984600802610d6d565b1980831691505092915050565b6000610da48383610d7a565b9150826002028217905092915050565b610dbd82610ab4565b67ffffffffffffffff811115610dd657610dd56106d1565b5b610de08254610bd7565b610deb828285610d27565b600060209050601f831160018114610e1e5760008415610e0c578287015190505b610e168582610d98565b865550610e7e565b601f198416610e2c86610c08565b60005b82811015610e5457848901518255600182019150602085019450602081019050610e2f565b86831015610e715784890151610e6d601f891682610d7a565b8355505b6001600288020188555050505b50505050505056fea2646970667358221220a5a2f70e58e889764f17a5934470da35ffa295489f6585b871fa5f84fd61117a64736f6c63430008180033",
  "linkReferences": {},
  "deployedLinkReferences": {}
}